:0700E700D2B3D2B4D2B5225E
:0D00C500EFD3940040077EC8DEFE1F80F3DD
:0100D200220B
:1000AF008F09E509D39400400C0000000000000008
:0600BF0000150980ED228E
:100097008F09E509D39400400EC2B7750A07D50A40
:0800A700FDD2B7150980EB2220
:10004900AE077F741200977F7D1200AF7508087F95
:1000590028120097EE30E0047F5D80027F41120094
:10006900AFEEC313FE1508E508D3940050E17F14E1
:03007900020097EB
:03007C0012004926
:10007F00C2907F321200C5D2907F321200C5C2905B
:08008F007F321200C5D290225D
:1000030020B313000000000000000020B30830B349
:10001300FD7FF312007C20B41300000000000000F9
:100023000020B40830B4FD7F3F12007C20B51600D9
:100033000000000000000020B50B30B5FD7FF51275
:06004300004912007F22BB
:0800DF001200E712000380FB90
:030000000200D328
:0C00D300787FE4F6D8FD75810A0200DF9A
:00000001FF
