:100000000C9403010C942E010C942E010C942E01DF
:100010000C942E010C942E010C942E010C942E01A4
:100020000C942E010C942E010C942E010C942E0194
:100030000C942E010C942E010C942E010C942E0184
:100040000C942E010C942E010C942E010C942E0174
:100050000C942E010C942E010C942E010C946B0226
:100060000C942E010C9483040C942E010C942E01FC
:100070000C942E010C942E010C942E010C942E0144
:100080000C942E010C942E010C942E010C942E0134
:100090000C94C4040C942E010C942E010C942E018B
:1000A0000C942E010C942E010C942E010C942E0114
:1000B0000C942E010C942E010C942E010C942E0104
:1000C0000C942E010C942E010C942E010C94050519
:1000D0000C942E010C942E010C9446050C942E01C8
:1000E0000C942E0100002100240027002A002D007E
:1000F0003000330001010000040107010A01000083
:100100002200250028002B002E00310034000201BF
:100110000000050108010B0100002000230026005B
:1001200029002C002F00320000010000030106010D
:10013000090105050505070508080808020202026D
:100140000A0A080804040404010101010101010173
:100150000303030303030303040707070C0C0C0C3E
:100160000C0C0C0C02020202060606060606060627
:100170000B0B0B0B0B0B0B0B0102102020080810B4
:100180002040102040800201020108040201010207
:1001900004081020408080402010080402018004E0
:1001A000020180402010080402010804020101023B
:1001B0000408102040800102040810204080000044
:1001C000090A02080B0C0D070603040100000000D9
:1001D000000000000000000000000000000000001F
:1001E00000000000000000000000100F0E000000E2
:1001F00000000000000000000000000000000000FF
:1002000000000000930611241FBECFEFD1E2DEBF35
:10021000CDBF13E0A0E0B2E0E6E4F2E100E00BBF06
:1002200002C007900D92AA32B107D9F71BBE15E0A4
:10023000AAE2B3E001C01D92A439B107E1F712E0D0
:10024000C6E0D2E004C02297FE010E941D09C4301E
:10025000D107C9F70E9464020C9421090C94000094
:100260001F93CF93DF9310E0C7E0D0E086E30E94B6
:10027000F703892BD9F38EE190E00E94DD0286E33B
:100280000E94F7038130910539F40C2E02C0880FCB
:10029000991F0A94E2F7182B86E30E94F70301974F
:1002A000D9F321978FEFCF3FD80701F7812FDF9147
:1002B000CF911F910895CF93DF9310922A0386E385
:1002C00060E00E946C0367E170E080E090E00E94D3
:1002D000B30286E361E00E946C0388E290E00E9432
:1002E000DD0286E360E00E944C0388E290E00E9419
:1002F000DD0286E30E94F703882311F081E030C01D
:1003000080E590E00E94DD0286E30E94F7038823E7
:1003100011F482E025C080E590E00E94DD02CBE28E
:10032000D3E00E943001899383E0C033D807C9F736
:1003300086E361E00E944C0386E361E00E946C0367
:1003400080912C0390912B03890F90912D03890F9D
:1003500090912E03890F90912F03981719F083E045
:1003600080932A03DF91CF91089586E361E00E9494
:100370004C0386E361E00E946C0308950E945B01D8
:1003800080912A03813009F458C0813038F08230DE
:1003900009F458C0833009F05FC059C088E495E083
:1003A00060E072E00E949A0740912B0350E060E009
:1003B00070E088E495E02AE030E00E94830888E459
:1003C00095E063E172E00E949A0740912C0350E0AF
:1003D00060E070E088E495E02AE030E00E94830865
:1003E00088E495E065E172E00E949A0788E495E070
:1003F00069E172E00E949A0740912D0350E060E0AD
:1004000070E088E495E02AE030E00E94830888E408
:1004100095E063E172E00E949A0740912E0350E05C
:1004200060E070E088E495E02AE030E00E94830814
:1004300088E495E068E272E013C088E495E06CE23D
:1004400072E00EC088E495E064E572E009C088E4DB
:1004500095E06CE772E004C088E495E069E972E039
:100460000E94B90760E273E080E090E00E94B3026E
:1004700008950F931F930E94B50108E415E0C80189
:1004800040E855E260E070E00E9487056CE271E0B0
:1004900080E090E00E94B302C8016FEB72E00E941E
:1004A000B907C8016BED72E00E94B907C80169EF96
:1004B00072E00E94B9076CEB72E080E090E00E946D
:1004C000B3021F910F9108950E94EB020E9439021E
:1004D0000E94BE01FDCF1F920F920FB60F92112402
:1004E0002F933F938F939F93AF93BF938091330349
:1004F00090913403A0913503B091360330913703C6
:100500000196A11DB11D232F2D5F2D3720F02D57F2
:100510000196A11DB11D209337038093330390935F
:100520003403A0933503B093360380912F03909149
:100530003003A0913103B09132030196A11DB11D8A
:1005400080932F0390933003A0933103B093320331
:10055000BF91AF919F918F913F912F910F900FBEBF
:100560000F901F901895EF92FF920F931F937B01AE
:100570008C018FB7F894409133035091340360910C
:100580003503709136038FBF2FB7F89480913303F2
:1005900090913403A0913503B09136032FBF841B93
:1005A000950BA60BB70BE816F9060A071B0760F7B1
:1005B0001F910F91FF90EF900895019759F0FC0162
:1005C000EE0FFF1FEE0FFF1F32978FB7F894319792
:1005D000F1F78FBF0895789484B5826084BD84B5A7
:1005E000816084BD85B5826085BD85B5816085BD2E
:1005F000EEE6F0E0808181608083E1E8F0E08081D8
:1006000082608083808181608083E0E8F0E0808187
:1006100081608083E1EBF0E0808184608083E0EBA7
:10062000F0E0808181608083E1E9F0E08081826098
:100630008083808181608083E1EAF0E08081826054
:100640008083808181608083E1E2F1E0808182604B
:100650008083808181608083E0E9F0E08081816037
:100660008083E0EAF0E0808181608083E0E2F1E075
:10067000808181608083EAE7F0E08081846080830C
:1006800080818260808380818160808380818068B6
:1006900080831092C1000895282F30E0C901885846
:1006A0009E4FFC0194912E5C3E4FF901849188236A
:1006B00091F0E82FF0E0EE0FFF1FEC51FF4FA591F6
:1006C000B491662329F48C91909589238C93089595
:1006D0008C91892B8C930895482F50E0CA01825445
:1006E0009E4FFC012491CA0188589E4FFC019491B1
:1006F0004E5C5E4FFA013491332309F477C0222314
:1007000009F462C0233021F4809180008F7705C006
:10071000243031F4809180008F7D8093800054C01C
:10072000213019F484B58F7704C0223021F484B5C8
:100730008F7D84BD49C0263021F48091B0008F7731
:1007400005C0273031F48091B0008F7D8093B000D8
:100750003BC0283021F4809190008F7705C029306C
:1007600031F4809190008F7D809390002DC02A30CD
:1007700021F480919000877FF7CF2B3021F4809176
:10078000A0008F770BC02C3021F48091A0008F7DCA
:1007900005C02D3031F48091A000877F8093A000A8
:1007A00013C02E3021F4809120018F770BC02F30A1
:1007B00021F4809120018F7D05C0203129F48091A2
:1007C0002001877F80932001E32FF0E0EE0FFF1FD1
:1007D000E250FF4FA591B491662329F48C91909536
:1007E00089238C9308958C91892B8C930895682F7D
:1007F00070E0CB0182549E4FFC012491CB018858BC
:100800009E4FFC0144916E5C7E4FFB0194919923B5
:1008100019F420E030E075C0222309F462C02330CF
:1008200021F4809180008F7705C0243031F48091CD
:1008300080008F7D8093800054C0213019F484B5EE
:100840008F7704C0223021F484B58F7D84BD49C0E8
:10085000263021F48091B0008F7705C0273031F425
:100860008091B0008F7D8093B0003BC0283021F490
:10087000809190008F7705C0293031F480919000ED
:100880008F7D809390002DC02A3021F480919000BC
:10089000877FF7CF2B3021F48091A0008F770BC09A
:1008A0002C3021F48091A0008F7D05C02D3031F4D3
:1008B0008091A000877F8093A00013C02E3021F488
:1008C000809120018F770BC02F3021F4809120017F
:1008D0008F7D05C0203129F480912001877F80938E
:1008E0002001892F90E0880F991F885E9E4FFC01A0
:1008F000A591B4918C9120E030E0842311F021E0A7
:1009000030E0C90108951F920F920FB60F920BB6F7
:100910000F9211242F933F934F935F936F937F9385
:100920008F939F93AF93BF93EF93FF934091C60034
:10093000E091B803F091B903CF01019660E870E04F
:100940000E94B7089C018091BA039091BB032817BD
:10095000390739F0E85CFC4F40833093B9032093AA
:10096000B803FF91EF91BF91AF919F918F917F91CC
:100970006F915F914F913F912F910F900BBE0F9010
:100980000FBE0F901F9018951F920F920FB60F92E7
:100990000BB60F9211242F933F934F935F936F9356
:1009A0007F938F939F93AF93BF93EF93FF93409168
:1009B000CE00E0913C04F0913D04CF01019660E847
:1009C00070E00E94B7089C0180913E0490913F0422
:1009D0002817390739F0E454FC4F408330933D0425
:1009E00020933C04FF91EF91BF91AF919F918F9124
:1009F0007F916F915F914F913F912F910F900BBE1F
:100A00000F900FBE0F901F9018951F920F920FB668
:100A10000F920BB60F9211242F933F934F935F9336
:100A20006F937F938F939F93AF93BF93EF93FF93B6
:100A30004091D600E091C004F091C104CF0101962D
:100A400060E870E00E94B7089C018091C204909118
:100A5000C3042817390739F0E05CFB4F408330931B
:100A6000C1042093C004FF91EF91BF91AF919F917A
:100A70008F917F916F915F914F913F912F910F9047
:100A80000BBE0F900FBE0F901F9018951F920F92E4
:100A90000FB60F920BB60F9211242F933F934F93E3
:100AA0005F936F937F938F939F93AF93BF93EF93D6
:100AB000FF9340913601E0914405F0914505CF0147
:100AC000019660E870E00E94B7089C01809146059D
:100AD000909147052817390739F0EC53FB4F4083B5
:100AE0003093450520934405FF91EF91BF91AF915D
:100AF0009F918F917F916F915F914F913F912F9136
:100B00000F900BBE0F900FBE0F901F9018955F9225
:100B10006F927F928F929F92AF92BF92CF92DF920D
:100B2000EF92FF920F931F93CF93DF93EC013A0163
:100B30004B01413482E458078FE0680780E0780772
:100B40000CF07FC060E874E88EE190E0A4019301AE
:100B50000E94EC082150304040405040CA01B90189
:100B600022E030E040E050E00E94EC0859016A01C8
:100B7000A6019501209530954095509594E0220F5F
:100B8000331F441F551F9A95D1F760E074E284EF3C
:100B900090E00E94EC08CA01B9012FEF30E040E07C
:100BA00050E00E949808A40193010E94EC08C9013A
:100BB00081509F4F181619061CF4522E5A9403C0E8
:100BC00055245394521A60E079E08DE390E0A4013B
:100BD00093010E94EC082150304040405040CA012F
:100BE000B90122E030E040E050E00E94EC0820959E
:100BF00030954095509583E0220F331F441F551FB9
:100C00008A95D1F760E074E284EF90E00E94EC08EE
:100C1000CA01B9012FEF30E040E050E00E9498088F
:100C2000A40193010E94EC08C90181509F4F18163E
:100C300019061CF4822F815002C081E0821B8515A9
:100C400000F5E885F98581E090E00A8802C0880F08
:100C5000991F0A94E2F7808360E079E08DE390E0E9
:100C6000A40193010E94EC082150304040405040C4
:100C7000CA01B90122E030E040E050E00E94EC08F7
:100C800004C0E885F98510829501EC81FD813083EF
:100C9000EE81FF812083EA85FB85208141E050E0E1
:100CA000CA010E8402C0880F991F0A94E2F7282B0C
:100CB0002083EA85FB852081CA010F8402C0880F4A
:100CC000991F0A94E2F7282B2083EA85FB8580810F
:100CD000088802C0440F551F0A94E2F7842B8083D2
:100CE000DF91CF911F910F91FF90EF90DF90CF9008
:100CF000BF90AF909F908F907F906F905F9008957E
:100D0000FC01A085B18521898C9190E0022E02C062
:100D1000959587950A94E2F780FFF6CF0484F585D0
:100D2000E02D6083089523E233E03093490520935A
:100D3000480588E393E090934B0580934A0585EC42
:100D400090E090934D0580934C0584EC90E0909357
:100D50004F0580934E0580EC90E090935105809371
:100D6000500581EC90E0909353058093520586ECFA
:100D700090E09093550580935405E4E0E093560588
:100D800073E07093570567E06093580555E0509302
:100D9000590541E040935A0530935C0520935B056B
:100DA0008CEB93E090935E0580935D058DEC90E075
:100DB0009093600580935F058CEC90E090936205C2
:100DC0008093610588EC90E09093640580936305BF
:100DD00089EC90E090936605809365058EEC90E039
:100DE0009093680580936705E093690570936A05A1
:100DF00060936B0550936C0540936D0530936F05C0
:100E000020936E0580E494E09093710580937005C3
:100E100085ED90E0909373058093720584ED90E0EA
:100E2000909375058093740580ED90E0909377051D
:100E30008093760581ED90E0909379058093780515
:100E400086ED90E090937B0580937A05E0937C0596
:100E500070937D0560937E0550937F0540938005D8
:100E6000309382052093810584EC94E0909384056F
:100E70008093830585E391E09093860580938505B3
:100E800084E391E0909388058093870580E391E067
:100E900090938A058093890581E391E090938C0576
:100EA00080938B0586E391E090938E0580938D056A
:100EB000E0938F0570939005609391055093920590
:100EC0004093930508950F931F93CF93DF938C0165
:100ED000EB0109C02196D801ED91FC910190F081C0
:100EE000E02DC801099568816623A1F7DF91CF91B4
:100EF0001F910F910895EF92FF920F931F93CF933D
:100F0000DF938C017B01EA010CC0D7016D917D015B
:100F1000D801ED91FC910190F081E02DC801099577
:100F20002197209791F7DF91CF911F910F91FF901B
:100F3000EF900895DC01ED91FC910280F381E02DAA
:100F4000099508950F931F938C01DC01ED91FC919D
:100F50000190F081E02D6DE00995D801ED91FC91B3
:100F60000190F081E02DC8016AE009951F910F9171
:100F700008950F931F938C010E949A07C8010E9445
:100F8000A2071F910F9108952F923F924F925F9267
:100F90006F927F928F929F92AF92BF92CF92DF9289
:100FA000EF92FF920F931F93DF93CF93CDB7DEB7EE
:100FB000A0970FB6F894DEBF0FBECDBF1C016A012B
:100FC0007B01411551056105710549F4DC01ED9185
:100FD000FC910190F081E02D60E3099554C08824D4
:100FE00099245401422E55246624772401E010E010
:100FF0000C0F1D1F080D191DC701B601A301920199
:101000000E94CA08F80160830894811C911CA11CED
:10101000B11CC701B601A30192010E94CA08C9010F
:10102000DA016C017D01C114D104E104F104F1F68F
:1010300081E0E82EF12CEC0EFD1EE80CF91C3E01BF
:101040000894611C711CD501C4010197A109B10963
:101050006C01C818D90814C0F601EE0DFF1D60819F
:101060006A3010F4605D01C0695CD101ED91FC91C2
:101070000190F081E02DC10109950894E108F10883
:101080006E147F0449F7A0960FB6F894DEBF0FBE2A
:10109000CDBFCF91DF911F910F91FF90EF90DF9027
:1010A000CF90BF90AF909F908F907F906F905F9008
:1010B0004F903F902F900895EF92FF920F931F93C0
:1010C000CF93DF93EC017A018B0177FF0FC0E881AA
:1010D000F9810190F081E02D6DE209951095009560
:1010E000F094E094E11CF11C011D111DCE01B8012A
:1010F000A7012AE00E94C407DF91CF911F910F91B1
:10110000FF90EF900895DC012115310541F4ED9138
:10111000FC910190F081E02D642F099508952A300B
:10112000310519F40E945C0808950E94C4070895CF
:10113000629FD001739FF001829FE00DF11D649FBB
:10114000E00DF11D929FF00D839FF00D749FF00D47
:10115000659FF00D9927729FB00DE11DF91F639FE8
:10116000B00DE11DF91FBD01CF011124089597FBBA
:10117000092E07260AD077FD04D049D006D00020DA
:101180001AF4709561957F4F0895F6F790958195C3
:101190009F4F0895A1E21A2EAA1BBB1BFD010DC093
:1011A000AA1FBB1FEE1FFF1FA217B307E407F50717
:1011B00020F0A21BB30BE40BF50B661F771F881FF3
:1011C000991F1A9469F760957095809590959B0189
:1011D000AC01BD01CF01089597FB092E05260ED065
:1011E00057FD04D0D7DF0AD0001C38F45095409545
:1011F000309521953F4F4F4F5F4F0895F6F79095EB
:101200008095709561957F4F8F4F9F4F0895AA1BD2
:10121000BB1B51E107C0AA1FBB1FA617B70710F0E1
:10122000A61BB70B881F991F5A95A9F78095909513
:10123000BC01CD010895EE0FFF1F0590F491E02D44
:061240000994F894FFCFB1
:1012460043757272656E742068756D646974792071
:101256003D20002E002520200074656D70657261AA
:1012660074757265203D2000432020004572726F20
:101276007220313A2044485420737461727420639A
:101286006F6E646974696F6E2031206E6F74206DA5
:1012960065742E004572726F7220323A20444854AB
:1012A60020737461727420636F6E646974696F6E03
:1012B6002032206E6F74206D65742E004572726F39
:1012C6007220333A2044485420636865636B737513
:1012D6006D206572726F722E004572726F723A20BF
:1012E600556E7265636F676E697A656420636F64B5
:1012F6006520656E636F756E74657265642E002079
:1013060020202020202020202020202020202057A0
:10131600656C636F6D6520746F200020202020208F
:1013260020202020202020207777772E726F626F72
:1013360074626173652E636E002020202020204891
:10134600756D696469747920616E642074656D7069
:1013560065726174757265206578616D706C0000E8
:0A136600000000800663077B07000B
:00000001FF
