:0B008F00D200D2B2D2AFD2A8D2882299
:10006F008F0AE50AD39400400A0000000000001533
:04007F000A80EF22E2
:05009A0012008F80FE42
:03000300020006F2
:10000600C0E0C0D075D000C007C2A87509057F231F
:1000160012006F30B202C2001509E509D3940050F0
:10002600ED30003A7F4812006F30B2327F73120013
:100036006F7F7612006F75090830B2FD7F56120089
:100046006FE508C313F50830B2084308807F1F1216
:10005600006F1509E509D3940050DE8508A0D2008B
:09006600D2A8D007D0D0D0E032BE
:0300000002008378
:0C008300787FE4F6D8FD75812002009A19
:00000001FF
