:1002C80046696E6765723A004572726F72004D6FCB
:1002D80064653A2020204964656E746966794D6FBB
:1002E80064653A202020496E707574202020100122
:1002F800FFFFFFFF0100071300000000001B1001B3
:10030800FFFFFFFF0100071200000000001A0C01A8
:10031800FFFFFFFF01000301000500000D01FFFFC3
:10032800FFFF01000402010008000D01FFFFFFFFAD
:1003380001000402020009001101FFFFFFFF010094
:10034800080401000000F000FE000C01FFFFFFFFA1
:1003580001000305000900000F01FFFFFFFF010076
:100368000606020000000F000D01FFFFFFFF01005D
:10037800041900001E002D01FFFFFFFF01002418D3
:100388000000000000000000000000000000000065
:100398000000000000000000000000000000000055
:1003A80000003D001001FFFFFFFF0100070C0000E7
:1003B800000100150C01FFFFFFFF0100030D0011F4
:1005CE0002080000020C0000020A000002140000E3
:1005DE00060E000000000000C101C102C10001169C
:1005EE00006040000000000000000000000000005D
:1005FE0000000000000000000000000000000000ED
:10060E0000000000000000000000000000000000DC
:10061E0000000000000000000000000000000000CC
:05062E000000000000C7
:10072C00C2A07F647E0012073CD2A012073CC2A07C
:10073C00E4FDFCC3ED9FEC9E5015E4FBFA0BBB00F3
:0F074C00010AEB64784A70F50DBD00010C80E4E2
:01075B00227B
:0A08D600C2998F993099FDC2992252
:040016007BFF7D3CB3
:08001A008B248A2589268D271D
:10002200E4F528F529FEF52AF52BF52CC203C204C6
:10003200C2057FEF1208D67F011208D6AB24AA258B
:10004200A926120560FF74012526F526E43525F55B
:100052002574012526F526E43525F525EF14F52826
:10006200E52864016019AB240526E526AA2570025D
:10007200052514F9120560FF1208D6152880E1D271
:1000820003E4F51675284074FF2528F582E434FF51
:10009200F583E4F0D528F020030302019FC203C2D6
:1000A20004C205E4F528F514F5152098030201852C
:1000B200859929C298E529B4EF1120040EE4F528A8
:1000C200900000E529F0752B0180DFE52B640170BB
:1000D2002AE5296401600DE4F52BC203C204C205BE
:1000E200F52880C6752B02052874002528F582E4C0
:1000F2003400F583E529F0D20480AFE52B64026079
:100102000302018530047C052874002528F582E469
:100112003400F583E529F0E528C394064010740005
:100122002528F582E43400F583E0252CF52CE5281A
:10013200B40808900008E0F52AD205300545E52A02
:100142002408FFE433FEE5286F7001EE703574FF7A
:100152002528F582E434FFF583E0FFC3E52C9FFFF9
:1001620074002528F582E43400F583E0FEC3EF9E97
:10017200F52C6E7E00EE6004C2038002D203E4F529
:100182002B8017D3E5159527E5149400500CE5282C
:0F019200943F50062000030200AC852816A203FC
:0101A100223B
:1007DB00E4FC7BFF7A0279F67D1412001A500DE5CA
:1007EB0016B40B08900009E07002D3220CECC394F2
:0307FB000240DFDA
:0107FE0022D8
:10087C007FC87E0012073C7BFF7A0379BC7D321265
:09088C00001A7FC87E0002073C3F
:10063400AC077BFF7A0379167D5912001A5045E501
:1006440016640B703F900009E07039EC6401701877
:100654007A037924120016502BE516640B7025904A
:100664000009E0701F7F0122EC640270177A03799D
:1006740032120016500EE516B40B09900009E07012
:07068400037F01227F002229
:10075C007BFF7A0379407D3C12001A501CE516B4DD
:10076C000F17900009E07011A3E0FEA3E07C0024B9
:0B077C0000F50BEC3EF50AD322C3226F
:1007B200E4F522F5237F01120634BF011012075C13
:1007C200E433F522B40103AF0B227FFF220523E5B8
:0807D20023C3940240DF7F0005
:0107DA0022FC
:1006F900E4FEEE90036093FD74002EF582E434006D
:10070900F583EDF00EBE10EA90000CEFF090000EAC
:10071900E02FF07B017A0079007D4612001A500122
:0207290022C3E9
:01072B0022AB
:1004DB00E4F522F5237F1EFE12073C7F0112063442
:1004EB008F22E522B401028010E52270EE0523E590
:1004FB0023C3942840E57F0022E4F523C2A07F6448
:10050B00FE12073CD2A07FD07E0712073C7F02125F
:10051B0006348F22E5226401702F7BFF7A03795218
:10052B007D2812001A5010E516B40B0B900009E051
:10053B007005FE7F0180047E007F00EF4E7002FF8E
:10054B002212072CD2A07F01220523E523C3941985
:04055B0040BB7F0022
:01055F002279
:10045400E4F522F5238E228F237D01FF1208237BEE
:10046400FF7A0279C81208AC7D08E4FF120823C39E
:10047400E52394F0E5229400504CAE22AF237C0097
:100484007D64120579EF2430F50EAE22AF237C0093
:100494007D641205797E007F0ACFCDCFCECCCE12FB
:1004A4000579EF2430F50FAE22AF237C007D0A12CC
:1004B4000579ED2430F5107511207512207B007A32
:1004C40000790E1208ACE523F4452270097BFF7A0B
:0604D4000279D01208AC11
:0104DA0022FF
:10078700E4FDFF1208237BFF20010D7A0279D612C0
:1007970008ACC291D290800B7A0279E61208ACD2EB
:0B07A70091C290C200E4FFFE02045467
:1008950043878075985053890F438921758BFF7560
:0708A5008DFFC2ABD28E22D1
:1001A200E4F521C201D2A9758A97758CBD7F05FE3F
:1001B20012073CC29612073C1207FF7F057E00120F
:1001C200073CE4FDFF1208237BFF7A0279D612086E
:1001D200AC120895C288D28AD2A8D2AAD2AF7F64C2
:1001E2007E0012073C12078720B4547F0A7E001259
:1001F200073C20B44A30B4FDC3E50994F0E5089405
:100202000050211204DBEF64017034E50904FF128F
:1002120006F9502B0509E50970020508FFAE081220
:100222000454801BC2A0E4F5217F647E0012073CC7
:10023200B2900521E521C3940840EEC290D2A020DD
:1002420001441207B2750C008F0DC3E50D9401E550
:100252000C9400401BD3E50D94F0E50C9400501073
:10026200AE0C120454C2A07F647E0012073CD2A0DE
:10027200E50DF4450C700FAF0DAE0C1204541207CD
:100282002C120735D2A030022FC20212087CC29073
:10029200D291D201E4FDFF1208237BFF7A0279E6B4
:1002A2001208ACE4F508F509FFFE120454C2A07F5F
:1002B200207E0312073CD2A02000030201EA1207AB
:0602C20087C2000201EA00
:030003000206C32F
:1006C300C0E0C0D075D000C002C003C004C005C0E4
:1006D30006C00720B20F7F0A7E0012073C20B20536
:1006E30030B2FDD202D007D006D005D004D003D05B
:0606F30002D0D0D0E0327D
:03000B000208C325
:1008C300C0E0758A97758CBD0515E5157002051492
:0308D300D0E03240
:0300130002068B57
:10068B00C0E0C0D075D000C002C003C004C005C01C
:10069B0006C00720B3117F147E0012073C20B3075E
:1006AB0030B3FDB201D200D007D006D005D004D0B4
:0806BB0003D002D0D0D0E032E0
:10084400D3EF9400EE940040147D6E7C00ED1D7097
:0D085400011CED4C70F7EF1F70E61E80E3F5
:010861002274
:10086200A20392958524807F057E00120844D297C8
:0A0872007F057E00120844C29722A1
:0A08E000C203EF4408F52402086289
:0A08EA00C203EF4404F52402086283
:1007FF00C297C203752438120862C20375243812D7
:10080F0008627F041208E0C2037524011208627F98
:04081F00020208EADF
:10082300AB05AA07EB700AC203EA4480F524120859
:1008330062BB010CC203EA24C04480F5241208629F
:010843002292
:1008AC00120560FF6010D203F5241208627401294E
:0708BC00F9E43AFA80EA2298
:030000000203C830
:0C03C800787FE4F6D8FD75812C02040F4C
:10056000BB010689828A83E0225002E722BBFE0299
:09057000E32289828A83E49322CC
:10057900BC000BBE0029EF8DF084FFADF022E4CC66
:10058900F875F008EF2FFFEE33FEEC33FCEE9DEC2F
:10059900984005FCEE9DFE0FD5F0E9E4CEFD22ED75
:1005A900F8F5F0EE8420D21CFEADF075F008EF2FBF
:1005B900FFED33FD4007985006D5F0F222C398FDB0
:0505C9000FD5F0EA224D
:1003D4000201A2E493A3F8E493A34003F68001F29C
:1003E40008DFF48029E493A3F85407240CC8C3332A
:1003F400C4540F4420C8834004F456800146F6DFF9
:10040400E4800B01020408102040809005CEE47EB5
:10041400019360BCA3FF543F30E509541FFEE493ED
:10042400A360010ECF54C025E060A840B8E493A3B4
:10043400FAE493A3F8E493A3C8C582C8CAC583CADF
:10044400F0A3C8C582C8CAC583CADFE9DEE780BE97
:0106330000C6
:00000001FF
